{
  "_format": "hh-sol-artifact-1",
  "contractName": "PublicSale",
  "sourceName": "contracts/PublicSale.sol",
  "abi": [
    {
      "inputs": [
        {
          "internalType": "address",
          "name": "tokenAdd_",
          "type": "address"
        },
        {
          "internalType": "address",
          "name": "principal_",
          "type": "address"
        },
        {
          "internalType": "uint256",
          "name": "price_",
          "type": "uint256"
        },
        {
          "internalType": "uint256",
          "name": "totalAmountToRaise_",
          "type": "uint256"
        },
        {
          "internalType": "uint256",
          "name": "totalTokenSupply_",
          "type": "uint256"
        },
        {
          "internalType": "address",
          "name": "stakedTokenAddress_",
          "type": "address"
        },
        {
          "internalType": "uint256",
          "name": "maxTokenPerUser_",
          "type": "uint256"
        },
        {
          "internalType": "uint32",
          "name": "startTime_",
          "type": "uint32"
        },
        {
          "internalType": "uint32",
          "name": "endTime_",
          "type": "uint32"
        },
        {
          "internalType": "string",
          "name": "ipfsId_",
          "type": "string"
        }
      ],
      "stateMutability": "nonpayable",
      "type": "constructor"
    },
    {
      "inputs": [],
      "name": "admin",
      "outputs": [
        {
          "internalType": "address",
          "name": "",
          "type": "address"
        }
      ],
      "stateMutability": "view",
      "type": "function"
    },
    {
      "inputs": [
        {
          "internalType": "bool",
          "name": "status",
          "type": "bool"
        }
      ],
      "name": "changeContractStatus",
      "outputs": [],
      "stateMutability": "nonpayable",
      "type": "function"
    },
    {
      "inputs": [
        {
          "internalType": "address",
          "name": "to_",
          "type": "address"
        }
      ],
      "name": "checkMaxTokenForUser",
      "outputs": [
        {
          "internalType": "uint256",
          "name": "",
          "type": "uint256"
        }
      ],
      "stateMutability": "view",
      "type": "function"
    },
    {
      "inputs": [],
      "name": "contractStatus",
      "outputs": [
        {
          "internalType": "bool",
          "name": "",
          "type": "bool"
        }
      ],
      "stateMutability": "view",
      "type": "function"
    },
    {
      "inputs": [],
      "name": "endTimestamp",
      "outputs": [
        {
          "internalType": "uint32",
          "name": "",
          "type": "uint32"
        }
      ],
      "stateMutability": "view",
      "type": "function"
    },
    {
      "inputs": [],
      "name": "getAmountInfo",
      "outputs": [
        {
          "internalType": "uint256",
          "name": "totalAmountToRaise_",
          "type": "uint256"
        },
        {
          "internalType": "uint256",
          "name": "totalAmountRaised_",
          "type": "uint256"
        }
      ],
      "stateMutability": "view",
      "type": "function"
    },
    {
      "inputs": [],
      "name": "getIpfsId",
      "outputs": [
        {
          "internalType": "string",
          "name": "",
          "type": "string"
        }
      ],
      "stateMutability": "view",
      "type": "function"
    },
    {
      "inputs": [],
      "name": "getProjectDetails",
      "outputs": [
        {
          "internalType": "address",
          "name": "projectToken_",
          "type": "address"
        },
        {
          "internalType": "address",
          "name": "principalToken_",
          "type": "address"
        },
        {
          "internalType": "string",
          "name": "ipfsId_",
          "type": "string"
        },
        {
          "internalType": "bool",
          "name": "contractStatus_",
          "type": "bool"
        }
      ],
      "stateMutability": "view",
      "type": "function"
    },
    {
      "inputs": [],
      "name": "getProjectTimeInfo",
      "outputs": [
        {
          "internalType": "uint32",
          "name": "startTimestamp_",
          "type": "uint32"
        },
        {
          "internalType": "uint32",
          "name": "endTimestamp_",
          "type": "uint32"
        }
      ],
      "stateMutability": "view",
      "type": "function"
    },
    {
      "inputs": [],
      "name": "getProjectTokenAddress",
      "outputs": [
        {
          "internalType": "address",
          "name": "",
          "type": "address"
        }
      ],
      "stateMutability": "view",
      "type": "function"
    },
    {
      "inputs": [],
      "name": "getStakedTokenAddress",
      "outputs": [
        {
          "internalType": "address",
          "name": "",
          "type": "address"
        }
      ],
      "stateMutability": "view",
      "type": "function"
    },
    {
      "inputs": [],
      "name": "getTokenInfo",
      "outputs": [
        {
          "internalType": "uint256",
          "name": "totalTokenSupply_",
          "type": "uint256"
        },
        {
          "internalType": "address",
          "name": "projectToken_",
          "type": "address"
        },
        {
          "internalType": "uint256",
          "name": "tokenPrice_",
          "type": "uint256"
        }
      ],
      "stateMutability": "view",
      "type": "function"
    },
    {
      "inputs": [
        {
          "internalType": "address",
          "name": "owner_",
          "type": "address"
        },
        {
          "internalType": "address",
          "name": "admin_",
          "type": "address"
        }
      ],
      "name": "initialize",
      "outputs": [],
      "stateMutability": "nonpayable",
      "type": "function"
    },
    {
      "inputs": [],
      "name": "maxTokenPerUser",
      "outputs": [
        {
          "internalType": "uint256",
          "name": "",
          "type": "uint256"
        }
      ],
      "stateMutability": "view",
      "type": "function"
    },
    {
      "inputs": [],
      "name": "owner",
      "outputs": [
        {
          "internalType": "address",
          "name": "",
          "type": "address"
        }
      ],
      "stateMutability": "view",
      "type": "function"
    },
    {
      "inputs": [
        {
          "internalType": "address",
          "name": "to_",
          "type": "address"
        },
        {
          "internalType": "uint256",
          "name": "amount",
          "type": "uint256"
        }
      ],
      "name": "participate",
      "outputs": [],
      "stateMutability": "nonpayable",
      "type": "function"
    },
    {
      "inputs": [
        {
          "internalType": "uint256",
          "name": "amount",
          "type": "uint256"
        }
      ],
      "name": "payoutFor",
      "outputs": [
        {
          "internalType": "uint256",
          "name": "",
          "type": "uint256"
        }
      ],
      "stateMutability": "view",
      "type": "function"
    },
    {
      "inputs": [],
      "name": "price",
      "outputs": [
        {
          "internalType": "uint256",
          "name": "",
          "type": "uint256"
        }
      ],
      "stateMutability": "view",
      "type": "function"
    },
    {
      "inputs": [
        {
          "internalType": "address",
          "name": "stakeTokenAddress_",
          "type": "address"
        }
      ],
      "name": "setStakedTokenAddress",
      "outputs": [
        {
          "internalType": "address",
          "name": "",
          "type": "address"
        }
      ],
      "stateMutability": "nonpayable",
      "type": "function"
    },
    {
      "inputs": [
        {
          "internalType": "uint32",
          "name": "startTime_",
          "type": "uint32"
        },
        {
          "internalType": "uint32",
          "name": "endTime_",
          "type": "uint32"
        }
      ],
      "name": "setTimeInfo",
      "outputs": [],
      "stateMutability": "nonpayable",
      "type": "function"
    },
    {
      "inputs": [],
      "name": "startTimestamp",
      "outputs": [
        {
          "internalType": "uint32",
          "name": "",
          "type": "uint32"
        }
      ],
      "stateMutability": "view",
      "type": "function"
    },
    {
      "inputs": [],
      "name": "totalAmountRaised",
      "outputs": [
        {
          "internalType": "uint256",
          "name": "",
          "type": "uint256"
        }
      ],
      "stateMutability": "view",
      "type": "function"
    },
    {
      "inputs": [],
      "name": "totalAmountToRaise",
      "outputs": [
        {
          "internalType": "uint256",
          "name": "",
          "type": "uint256"
        }
      ],
      "stateMutability": "view",
      "type": "function"
    },
    {
      "inputs": [],
      "name": "totalParticipatedUser",
      "outputs": [
        {
          "internalType": "uint32",
          "name": "",
          "type": "uint32"
        }
      ],
      "stateMutability": "view",
      "type": "function"
    },
    {
      "inputs": [],
      "name": "totalTokenSupply",
      "outputs": [
        {
          "internalType": "uint256",
          "name": "",
          "type": "uint256"
        }
      ],
      "stateMutability": "view",
      "type": "function"
    },
    {
      "inputs": [
        {
          "internalType": "address",
          "name": "",
          "type": "address"
        }
      ],
      "name": "userToTokenAmount",
      "outputs": [
        {
          "internalType": "uint256",
          "name": "",
          "type": "uint256"
        }
      ],
      "stateMutability": "view",
      "type": "function"
    },
    {
      "inputs": [],
      "name": "withdrawRaisedAmount",
      "outputs": [
        {
          "internalType": "uint256",
          "name": "",
          "type": "uint256"
        }
      ],
      "stateMutability": "nonpayable",
      "type": "function"
    },
    {
      "inputs": [
        {
          "internalType": "address",
          "name": "to_",
          "type": "address"
        }
      ],
      "name": "withdrawRemainingTokens",
      "outputs": [
        {
          "internalType": "uint256",
          "name": "",
          "type": "uint256"
        }
      ],
      "stateMutability": "nonpayable",
      "type": "function"
    },
    {
      "stateMutability": "payable",
      "type": "receive"
    }
  ],
  "bytecode": "0x60806040523480156200001157600080fd5b50604051620037a1380380620037a183398181016040528101906200003791906200034f565b33600c60006101000a81548173ffffffffffffffffffffffffffffffffffffffff021916908373ffffffffffffffffffffffffffffffffffffffff16021790555089600960006101000a81548173ffffffffffffffffffffffffffffffffffffffff021916908373ffffffffffffffffffffffffffffffffffffffff16021790555088600a60006101000a81548173ffffffffffffffffffffffffffffffffffffffff021916908373ffffffffffffffffffffffffffffffffffffffff16021790555087600481905550866003819055508560018190555084600d60006101000a81548173ffffffffffffffffffffffffffffffffffffffff021916908373ffffffffffffffffffffffffffffffffffffffff160217905550633b9aca00600e819055508360068190555082600560046101000a81548163ffffffff021916908363ffffffff16021790555081600560086101000a81548163ffffffff021916908363ffffffff1602179055508060089080519060200190620001bc929190620001e8565b506001600760006101000a81548160ff0219169083151502179055505050505050505050505062000664565b828054620001f6906200053b565b90600052602060002090601f0160209004810192826200021a576000855562000266565b82601f106200023557805160ff191683800117855562000266565b8280016001018555821562000266579182015b828111156200026557825182559160200191906001019062000248565b5b50905062000275919062000279565b5090565b5b80821115620002945760008160009055506001016200027a565b5090565b6000620002af620002a98462000481565b62000458565b905082815260208101848484011115620002c857600080fd5b620002d584828562000505565b509392505050565b600081519050620002ee8162000616565b92915050565b600082601f8301126200030657600080fd5b81516200031884826020860162000298565b91505092915050565b600081519050620003328162000630565b92915050565b60008151905062000349816200064a565b92915050565b6000806000806000806000806000806101408b8d0312156200037057600080fd5b6000620003808d828e01620002dd565b9a50506020620003938d828e01620002dd565b9950506040620003a68d828e0162000321565b9850506060620003b98d828e0162000321565b9750506080620003cc8d828e0162000321565b96505060a0620003df8d828e01620002dd565b95505060c0620003f28d828e0162000321565b94505060e0620004058d828e0162000338565b935050610100620004198d828e0162000338565b9250506101208b015167ffffffffffffffff8111156200043857600080fd5b620004468d828e01620002f4565b9150509295989b9194979a5092959850565b60006200046462000477565b905062000472828262000571565b919050565b6000604051905090565b600067ffffffffffffffff8211156200049f576200049e620005d6565b5b620004aa8262000605565b9050602081019050919050565b6000620004c482620004cb565b9050919050565b600073ffffffffffffffffffffffffffffffffffffffff82169050919050565b6000819050919050565b600063ffffffff82169050919050565b60005b838110156200052557808201518184015260208101905062000508565b8381111562000535576000848401525b50505050565b600060028204905060018216806200055457607f821691505b602082108114156200056b576200056a620005a7565b5b50919050565b6200057c8262000605565b810181811067ffffffffffffffff821117156200059e576200059d620005d6565b5b80604052505050565b7f4e487b7100000000000000000000000000000000000000000000000000000000600052602260045260246000fd5b7f4e487b7100000000000000000000000000000000000000000000000000000000600052604160045260246000fd5b6000601f19601f8301169050919050565b6200062181620004b7565b81146200062d57600080fd5b50565b6200063b81620004eb565b81146200064757600080fd5b50565b6200065581620004f5565b81146200066157600080fd5b50565b61312d80620006746000396000f3fe6080604052600436106101bb5760003560e01c8063a035b1fe116100ec578063e453c8041161008a578063f851a44011610064578063f851a44014610615578063f9af1a9814610640578063fb8130ec1461067d578063ff3a9c7e146106a6576101c2565b8063e453c80414610581578063e6fd48bc146105ad578063f309d68f146105d8576101c2565b8063abb1dc44116100c6578063abb1dc44146104d5578063b64afbe514610502578063be1b34331461052b578063c6ee20d214610556576101c2565b8063a035b1fe14610454578063a0a7a1831461047f578063a85adeab146104aa576101c2565b80635affbd97116101595780637cbb7b46116101335780637cbb7b46146103a75780638da5cb5b146103d25780639ebe2d0a146103fd5780639f0f815414610428576101c2565b80635affbd971461030257806378d185331461033f5780637927ebf81461036a576101c2565b8063485cc95511610195578063485cc9551461025a5780634b6c36b5146102835780634c664d3e146102ac57806350c50710146102d7576101c2565b806313e17306146101c75780631ca8b6cb14610204578063242d7dba1461022f576101c2565b366101c257005b600080fd5b3480156101d357600080fd5b506101ee60048036038101906101e991906122d2565b6106d4565b6040516101fb919061271d565b60405180910390f35b34801561021057600080fd5b5061021961080b565b6040516102269190612a01565b60405180910390f35b34801561023b57600080fd5b50610244610811565b6040516102519190612a01565b60405180910390f35b34801561026657600080fd5b50610281600480360381019061027c91906122fb565b610817565b005b34801561028f57600080fd5b506102aa60048036038101906102a59190612373565b610911565b005b3480156102b857600080fd5b506102c1610a16565b6040516102ce91906127ff565b60405180910390f35b3480156102e357600080fd5b506102ec610aa8565b6040516102f99190612a01565b60405180910390f35b34801561030e57600080fd5b50610329600480360381019061032491906122d2565b610aae565b6040516103369190612a01565b60405180910390f35b34801561034b57600080fd5b50610354610c9d565b6040516103619190612a01565b60405180910390f35b34801561037657600080fd5b50610391600480360381019061038c91906123c5565b610dfc565b60405161039e9190612a01565b60405180910390f35b3480156103b357600080fd5b506103bc610e4b565b6040516103c9919061271d565b60405180910390f35b3480156103de57600080fd5b506103e7610e75565b6040516103f4919061271d565b60405180910390f35b34801561040957600080fd5b50610412610e9f565b60405161041f9190612a01565b60405180910390f35b34801561043457600080fd5b5061043d610ea5565b60405161044b929190612a53565b60405180910390f35b34801561046057600080fd5b50610469610eb6565b6040516104769190612a01565b60405180910390f35b34801561048b57600080fd5b50610494610ebc565b6040516104a19190612a7c565b60405180910390f35b3480156104b657600080fd5b506104bf610ed2565b6040516104cc9190612a7c565b60405180910390f35b3480156104e157600080fd5b506104ea610ee8565b6040516104f993929190612a1c565b60405180910390f35b34801561050e57600080fd5b5061052960048036038101906105249190612337565b610f21565b005b34801561053757600080fd5b506105406112ac565b60405161054d919061271d565b60405180910390f35b34801561056257600080fd5b5061056b6112d6565b60405161057891906127e4565b60405180910390f35b34801561058d57600080fd5b506105966112e9565b6040516105a4929190612a97565b60405180910390f35b3480156105b957600080fd5b506105c261131a565b6040516105cf9190612a7c565b60405180910390f35b3480156105e457600080fd5b506105ff60048036038101906105fa91906122d2565b611330565b60405161060c9190612a01565b60405180910390f35b34801561062157600080fd5b5061062a61141f565b604051610637919061271d565b60405180910390f35b34801561064c57600080fd5b50610667600480360381019061066291906122d2565b611449565b6040516106749190612a01565b60405180910390f35b34801561068957600080fd5b506106a4600480360381019061069f9190612417565b611461565b005b3480156106b257600080fd5b506106bb611609565b6040516106cb9493929190612738565b60405180910390f35b6000600c60009054906101000a900473ffffffffffffffffffffffffffffffffffffffff1673ffffffffffffffffffffffffffffffffffffffff163373ffffffffffffffffffffffffffffffffffffffff1614610766576040517f08c379a000000000000000000000000000000000000000000000000000000000815260040161075d90612821565b60405180910390fd5b600073ffffffffffffffffffffffffffffffffffffffff168273ffffffffffffffffffffffffffffffffffffffff1614156107a057600080fd5b81600d60006101000a81548173ffffffffffffffffffffffffffffffffffffffff021916908373ffffffffffffffffffffffffffffffffffffffff160217905550600d60009054906101000a900473ffffffffffffffffffffffffffffffffffffffff169050919050565b60015481565b60025481565b600073ffffffffffffffffffffffffffffffffffffffff168273ffffffffffffffffffffffffffffffffffffffff16141561085157600080fd5b600073ffffffffffffffffffffffffffffffffffffffff168173ffffffffffffffffffffffffffffffffffffffff16141561088b57600080fd5b81600c60006101000a81548173ffffffffffffffffffffffffffffffffffffffff021916908373ffffffffffffffffffffffffffffffffffffffff16021790555080600b60006101000a81548173ffffffffffffffffffffffffffffffffffffffff021916908373ffffffffffffffffffffffffffffffffffffffff1602179055505050565b3373ffffffffffffffffffffffffffffffffffffffff16600c60009054906101000a900473ffffffffffffffffffffffffffffffffffffffff1673ffffffffffffffffffffffffffffffffffffffff1614806109ba57503373ffffffffffffffffffffffffffffffffffffffff16600b60009054906101000a900473ffffffffffffffffffffffffffffffffffffffff1673ffffffffffffffffffffffffffffffffffffffff16145b6109f9576040517f08c379a00000000000000000000000000000000000000000000000000000000081526004016109f0906129c1565b60405180910390fd5b80600760006101000a81548160ff02191690831515021790555050565b606060088054610a2590612ccc565b80601f0160208091040260200160405190810160405280929190818152602001828054610a5190612ccc565b8015610a9e5780601f10610a7357610100808354040283529160200191610a9e565b820191906000526020600020905b815481529060010190602001808311610a8157829003601f168201915b5050505050905090565b60065481565b60003373ffffffffffffffffffffffffffffffffffffffff16600c60009054906101000a900473ffffffffffffffffffffffffffffffffffffffff1673ffffffffffffffffffffffffffffffffffffffff161480610b5957503373ffffffffffffffffffffffffffffffffffffffff16600b60009054906101000a900473ffffffffffffffffffffffffffffffffffffffff1673ffffffffffffffffffffffffffffffffffffffff16145b610b98576040517f08c379a0000000000000000000000000000000000000000000000000000000008152600401610b8f906129c1565b60405180910390fd5b6000600960009054906101000a900473ffffffffffffffffffffffffffffffffffffffff1673ffffffffffffffffffffffffffffffffffffffff166370a08231306040518263ffffffff1660e01b8152600401610bf5919061271d565b60206040518083038186803b158015610c0d57600080fd5b505afa158015610c21573d6000803e3d6000fd5b505050506040513d601f19601f82011682018060405250810190610c4591906123ee565b9050610c948382600960009054906101000a900473ffffffffffffffffffffffffffffffffffffffff1673ffffffffffffffffffffffffffffffffffffffff166116ff9092919063ffffffff16565b80915050919050565b60003373ffffffffffffffffffffffffffffffffffffffff16600c60009054906101000a900473ffffffffffffffffffffffffffffffffffffffff1673ffffffffffffffffffffffffffffffffffffffff1614610cf957600080fd5b6000600a60009054906101000a900473ffffffffffffffffffffffffffffffffffffffff1673ffffffffffffffffffffffffffffffffffffffff166370a08231306040518263ffffffff1660e01b8152600401610d56919061271d565b60206040518083038186803b158015610d6e57600080fd5b505afa158015610d82573d6000803e3d6000fd5b505050506040513d601f19601f82011682018060405250810190610da691906123ee565b9050610df53382600a60009054906101000a900473ffffffffffffffffffffffffffffffffffffffff1673ffffffffffffffffffffffffffffffffffffffff166116ff9092919063ffffffff16565b8091505090565b6000610e4466038d7ea4c68000610e3666038d7ea4c68000610e28610e2387600454611785565b61198c565b6119ca90919063ffffffff16565b611a1490919063ffffffff16565b9050919050565b6000600960009054906101000a900473ffffffffffffffffffffffffffffffffffffffff16905090565b6000600c60009054906101000a900473ffffffffffffffffffffffffffffffffffffffff16905090565b60035481565b600080600254905060035491509091565b60045481565b600560009054906101000a900463ffffffff1681565b600560089054906101000a900463ffffffff1681565b60008060006001549250600960009054906101000a900473ffffffffffffffffffffffffffffffffffffffff1691506004549050909192565b600760009054906101000a900460ff16610f70576040517f08c379a0000000000000000000000000000000000000000000000000000000008152600401610f6790612901565b60405180910390fd5b60008111610fb3576040517f08c379a0000000000000000000000000000000000000000000000000000000008152600401610faa90612841565b60405180910390fd5b42600560049054906101000a900463ffffffff1663ffffffff161061100d576040517f08c379a000000000000000000000000000000000000000000000000000000000815260040161100490612921565b60405180910390fd5b42600560089054906101000a900463ffffffff1663ffffffff1611611067576040517f08c379a000000000000000000000000000000000000000000000000000000000815260040161105e90612981565b60405180910390fd5b60035461107f82600254611a4b90919063ffffffff16565b11156110c0576040517f08c379a00000000000000000000000000000000000000000000000000000000081526004016110b7906128c1565b60405180910390fd5b60006110cb82610dfc565b90506110d78382611a6e565b60008060008573ffffffffffffffffffffffffffffffffffffffff1673ffffffffffffffffffffffffffffffffffffffff16815260200190815260200160002054141561115f576001600560008282829054906101000a900463ffffffff166111409190612b48565b92506101000a81548163ffffffff021916908363ffffffff1602179055505b81600260008282546111719190612af2565b925050819055506111c9816000808673ffffffffffffffffffffffffffffffffffffffff1673ffffffffffffffffffffffffffffffffffffffff16815260200190815260200160002054611a4b90919063ffffffff16565b6000808573ffffffffffffffffffffffffffffffffffffffff1673ffffffffffffffffffffffffffffffffffffffff1681526020019081526020016000208190555061125a333084600a60009054906101000a900473ffffffffffffffffffffffffffffffffffffffff1673ffffffffffffffffffffffffffffffffffffffff16611b12909392919063ffffffff16565b6112a78382600960009054906101000a900473ffffffffffffffffffffffffffffffffffffffff1673ffffffffffffffffffffffffffffffffffffffff166116ff9092919063ffffffff16565b505050565b6000600d60009054906101000a900473ffffffffffffffffffffffffffffffffffffffff16905090565b600760009054906101000a900460ff1681565b600080600560049054906101000a900463ffffffff169150600560089054906101000a900463ffffffff1690509091565b600560049054906101000a900463ffffffff1681565b600080600d60009054906101000a900473ffffffffffffffffffffffffffffffffffffffff1673ffffffffffffffffffffffffffffffffffffffff166370a08231846040518263ffffffff1660e01b815260040161138e919061271d565b60206040518083038186803b1580156113a657600080fd5b505afa1580156113ba573d6000803e3d6000fd5b505050506040513d601f19601f820116820180604052508101906113de91906123ee565b905060006113ff600e546113f184611b9b565b611a1490919063ffffffff16565b905061141660065482611c0b90919063ffffffff16565b92505050919050565b6000600b60009054906101000a900473ffffffffffffffffffffffffffffffffffffffff16905090565b60006020528060005260406000206000915090505481565b3373ffffffffffffffffffffffffffffffffffffffff16600c60009054906101000a900473ffffffffffffffffffffffffffffffffffffffff1673ffffffffffffffffffffffffffffffffffffffff16148061150a57503373ffffffffffffffffffffffffffffffffffffffff16600b60009054906101000a900473ffffffffffffffffffffffffffffffffffffffff1673ffffffffffffffffffffffffffffffffffffffff16145b611549576040517f08c379a0000000000000000000000000000000000000000000000000000000008152600401611540906129c1565b60405180910390fd5b60008263ffffffff16141580611566575060008163ffffffff1614155b6115a5576040517f08c379a000000000000000000000000000000000000000000000000000000000815260040161159c90612861565b60405180910390fd5b60008263ffffffff16146115d55781600560046101000a81548163ffffffff021916908363ffffffff1602179055505b60008163ffffffff16146116055780600560086101000a81548163ffffffff021916908363ffffffff1602179055505b5050565b60008060606000600a60009054906101000a900473ffffffffffffffffffffffffffffffffffffffff169250600960009054906101000a900473ffffffffffffffffffffffffffffffffffffffff1693506008805461166790612ccc565b80601f016020809104026020016040519081016040528092919081815260200182805461169390612ccc565b80156116e05780601f106116b5576101008083540402835291602001916116e0565b820191906000526020600020905b8154815290600101906020018083116116c357829003601f168201915b50505050509150600760009054906101000a900460ff16905090919293565b6117808363a9059cbb60e01b848460405160240161171e9291906127bb565b604051602081830303815290604052907bffffffffffffffffffffffffffffffffffffffffffffffffffffffff19166020820180517bffffffffffffffffffffffffffffffffffffffffffffffffffffffff8381831617835250505050611c27565b505050565b61178d612223565b600082116117d0576040517f08c379a00000000000000000000000000000000000000000000000000000000081526004016117c7906128e1565b60405180910390fd5b600083141561180e57604051806020016040528060007bffffffffffffffffffffffffffffffffffffffffffffffffffffffff168152509050611986565b71ffffffffffffffffffffffffffffffffffff801683116118d657600082607060ff1685901b61183e9190612b82565b90507bffffffffffffffffffffffffffffffffffffffffffffffffffffffff80168111156118a1576040517f08c379a000000000000000000000000000000000000000000000000000000000815260040161189890612961565b60405180910390fd5b6040518060200160405280827bffffffffffffffffffffffffffffffffffffffffffffffffffffffff16815250915050611986565b60006118f2846e01000000000000000000000000000085611cee565b90507bffffffffffffffffffffffffffffffffffffffffffffffffffffffff8016811115611955576040517f08c379a000000000000000000000000000000000000000000000000000000000815260040161194c90612961565b60405180910390fd5b6040518060200160405280827bffffffffffffffffffffffffffffffffffffffffffffffffffffffff168152509150505b92915050565b60006612725dd1d243ab82600001517bffffffffffffffffffffffffffffffffffffffffffffffffffffffff166119c39190612b82565b9050919050565b6000611a0c83836040518060400160405280601a81526020017f536166654d6174683a206469766973696f6e206279207a65726f000000000000815250611dbc565b905092915050565b600080831480611a3c575081838385611a2d9190612bb3565b925082611a3a9190612b82565b145b611a4557600080fd5b92915050565b6000828284611a5a9190612af2565b9150811015611a6857600080fd5b92915050565b6000611a7983611330565b905080611acd836000808773ffffffffffffffffffffffffffffffffffffffff1673ffffffffffffffffffffffffffffffffffffffff16815260200190815260200160002054611a4b90919063ffffffff16565b10611b0d576040517f08c379a0000000000000000000000000000000000000000000000000000000008152600401611b04906128a1565b60405180910390fd5b505050565b611b95846323b872dd60e01b858585604051602401611b3393929190612784565b604051602081830303815290604052907bffffffffffffffffffffffffffffffffffffffffffffffffffffffff19166020820180517bffffffffffffffffffffffffffffffffffffffffffffffffffffffff8381831617835250505050611c27565b50505050565b60006003821115611bf8578190506000611bc0611bb98460026119ca565b6001611a4b565b90505b81811015611bf257809150611beb611be4611bde85846119ca565b83611a4b565b60026119ca565b9050611bc3565b50611c06565b60008214611c0557600190505b5b919050565b600081831015611c1d57829050611c21565b8190505b92915050565b6000611c89826040518060400160405280602081526020017f5361666545524332303a206c6f772d6c6576656c2063616c6c206661696c65648152508573ffffffffffffffffffffffffffffffffffffffff16611e1f9092919063ffffffff16565b9050600081511115611ce95780806020019051810190611ca9919061239c565b611ce8576040517f08c379a0000000000000000000000000000000000000000000000000000000008152600401611cdf906129e1565b60405180910390fd5b5b505050565b6000806000611cfd8686611e37565b9150915060008480611d38577f4e487b7100000000000000000000000000000000000000000000000000000000600052601260045260246000fd5b868809905082811115611d5557600182611d529190612c0d565b91505b8083611d619190612c0d565b9250848210611da5576040517f08c379a0000000000000000000000000000000000000000000000000000000008152600401611d9c90612941565b60405180910390fd5b611db0838387611ed2565b93505050509392505050565b60008083118290611e03576040517f08c379a0000000000000000000000000000000000000000000000000000000008152600401611dfa91906127ff565b60405180910390fd5b5060008385611e129190612b82565b9050809150509392505050565b6060611e2e8484600085612085565b90509392505050565b60008060007fffffffffffffffffffffffffffffffffffffffffffffffffffffffffffffffff80611e91577f4e487b7100000000000000000000000000000000000000000000000000000000600052601260045260246000fd5b84860990508385611ea29190612bb3565b92508281611eb09190612c0d565b915082811015611eca57600182611ec79190612c0d565b91505b509250929050565b60008060018319611ee39190612af2565b831690508083611ef39190612b82565b92508085611f019190612b82565b945060018160018319611f149190612af2565b611f1e9190612b82565b611f289190612af2565b84611f339190612bb3565b85611f3e9190612af2565b94506000600190508084611f529190612bb3565b6002611f5e9190612c0d565b81611f699190612bb3565b90508084611f779190612bb3565b6002611f839190612c0d565b81611f8e9190612bb3565b90508084611f9c9190612bb3565b6002611fa89190612c0d565b81611fb39190612bb3565b90508084611fc19190612bb3565b6002611fcd9190612c0d565b81611fd89190612bb3565b90508084611fe69190612bb3565b6002611ff29190612c0d565b81611ffd9190612bb3565b9050808461200b9190612bb3565b60026120179190612c0d565b816120229190612bb3565b905080846120309190612bb3565b600261203c9190612c0d565b816120479190612bb3565b905080846120559190612bb3565b60026120619190612c0d565b8161206c9190612bb3565b9050808661207a9190612bb3565b925050509392505050565b6060824710156120ca576040517f08c379a00000000000000000000000000000000000000000000000000000000081526004016120c190612881565b60405180910390fd5b6120d385612199565b612112576040517f08c379a0000000000000000000000000000000000000000000000000000000008152600401612109906129a1565b60405180910390fd5b6000808673ffffffffffffffffffffffffffffffffffffffff16858760405161213b9190612706565b60006040518083038185875af1925050503d8060008114612178576040519150601f19603f3d011682016040523d82523d6000602084013e61217d565b606091505b509150915061218d8282866121bc565b92505050949350505050565b6000808273ffffffffffffffffffffffffffffffffffffffff163b119050919050565b606083156121cc5782905061221c565b6000835111156121df5782518084602001fd5b816040517f08c379a000000000000000000000000000000000000000000000000000000000815260040161221391906127ff565b60405180910390fd5b9392505050565b604051806020016040528060007bffffffffffffffffffffffffffffffffffffffffffffffffffffffff1681525090565b6000813590506122638161309b565b92915050565b600081359050612278816130b2565b92915050565b60008151905061228d816130b2565b92915050565b6000813590506122a2816130c9565b92915050565b6000815190506122b7816130c9565b92915050565b6000813590506122cc816130e0565b92915050565b6000602082840312156122e457600080fd5b60006122f284828501612254565b91505092915050565b6000806040838503121561230e57600080fd5b600061231c85828601612254565b925050602061232d85828601612254565b9150509250929050565b6000806040838503121561234a57600080fd5b600061235885828601612254565b925050602061236985828601612293565b9150509250929050565b60006020828403121561238557600080fd5b600061239384828501612269565b91505092915050565b6000602082840312156123ae57600080fd5b60006123bc8482850161227e565b91505092915050565b6000602082840312156123d757600080fd5b60006123e584828501612293565b91505092915050565b60006020828403121561240057600080fd5b600061240e848285016122a8565b91505092915050565b6000806040838503121561242a57600080fd5b6000612438858286016122bd565b9250506020612449858286016122bd565b9150509250929050565b61245c81612c41565b82525050565b61246b81612c53565b82525050565b600061247c82612ac0565b6124868185612ad6565b9350612496818560208601612c99565b80840191505092915050565b60006124ad82612acb565b6124b78185612ae1565b93506124c7818560208601612c99565b6124d081612d8b565b840191505092915050565b60006124e8601083612ae1565b91506124f382612d9c565b602082019050919050565b600061250b600e83612ae1565b915061251682612dc5565b602082019050919050565b600061252e601a83612ae1565b915061253982612dee565b602082019050919050565b6000612551602683612ae1565b915061255c82612e17565b604082019050919050565b6000612574601383612ae1565b915061257f82612e66565b602082019050919050565b6000612597602483612ae1565b91506125a282612e8f565b604082019050919050565b60006125ba602683612ae1565b91506125c582612ede565b604082019050919050565b60006125dd601983612ae1565b91506125e882612f2d565b602082019050919050565b6000612600601083612ae1565b915061260b82612f56565b602082019050919050565b6000612623601a83612ae1565b915061262e82612f7f565b602082019050919050565b6000612646601e83612ae1565b915061265182612fa8565b602082019050919050565b6000612669601183612ae1565b915061267482612fd1565b602082019050919050565b600061268c601d83612ae1565b915061269782612ffa565b602082019050919050565b60006126af600e83612ae1565b91506126ba82613023565b602082019050919050565b60006126d2602a83612ae1565b91506126dd8261304c565b604082019050919050565b6126f181612c7f565b82525050565b61270081612c89565b82525050565b60006127128284612471565b915081905092915050565b60006020820190506127326000830184612453565b92915050565b600060808201905061274d6000830187612453565b61275a6020830186612453565b818103604083015261276c81856124a2565b905061277b6060830184612462565b95945050505050565b60006060820190506127996000830186612453565b6127a66020830185612453565b6127b360408301846126e8565b949350505050565b60006040820190506127d06000830185612453565b6127dd60208301846126e8565b9392505050565b60006020820190506127f96000830184612462565b92915050565b6000602082019050818103600083015261281981846124a2565b905092915050565b6000602082019050818103600083015261283a816124db565b9050919050565b6000602082019050818103600083015261285a816124fe565b9050919050565b6000602082019050818103600083015261287a81612521565b9050919050565b6000602082019050818103600083015261289a81612544565b9050919050565b600060208201905081810360008301526128ba81612567565b9050919050565b600060208201905081810360008301526128da8161258a565b9050919050565b600060208201905081810360008301526128fa816125ad565b9050919050565b6000602082019050818103600083015261291a816125d0565b9050919050565b6000602082019050818103600083015261293a816125f3565b9050919050565b6000602082019050818103600083015261295a81612616565b9050919050565b6000602082019050818103600083015261297a81612639565b9050919050565b6000602082019050818103600083015261299a8161265c565b9050919050565b600060208201905081810360008301526129ba8161267f565b9050919050565b600060208201905081810360008301526129da816126a2565b9050919050565b600060208201905081810360008301526129fa816126c5565b9050919050565b6000602082019050612a1660008301846126e8565b92915050565b6000606082019050612a3160008301866126e8565b612a3e6020830185612453565b612a4b60408301846126e8565b949350505050565b6000604082019050612a6860008301856126e8565b612a7560208301846126e8565b9392505050565b6000602082019050612a9160008301846126f7565b92915050565b6000604082019050612aac60008301856126f7565b612ab960208301846126f7565b9392505050565b600081519050919050565b600081519050919050565b600081905092915050565b600082825260208201905092915050565b6000612afd82612c7f565b9150612b0883612c7f565b9250827fffffffffffffffffffffffffffffffffffffffffffffffffffffffffffffffff03821115612b3d57612b3c612cfe565b5b828201905092915050565b6000612b5382612c89565b9150612b5e83612c89565b92508263ffffffff03821115612b7757612b76612cfe565b5b828201905092915050565b6000612b8d82612c7f565b9150612b9883612c7f565b925082612ba857612ba7612d2d565b5b828204905092915050565b6000612bbe82612c7f565b9150612bc983612c7f565b9250817fffffffffffffffffffffffffffffffffffffffffffffffffffffffffffffffff0483118215151615612c0257612c01612cfe565b5b828202905092915050565b6000612c1882612c7f565b9150612c2383612c7f565b925082821015612c3657612c35612cfe565b5b828203905092915050565b6000612c4c82612c5f565b9050919050565b60008115159050919050565b600073ffffffffffffffffffffffffffffffffffffffff82169050919050565b6000819050919050565b600063ffffffff82169050919050565b60005b83811015612cb7578082015181840152602081019050612c9c565b83811115612cc6576000848401525b50505050565b60006002820490506001821680612ce457607f821691505b60208210811415612cf857612cf7612d5c565b5b50919050565b7f4e487b7100000000000000000000000000000000000000000000000000000000600052601160045260246000fd5b7f4e487b7100000000000000000000000000000000000000000000000000000000600052601260045260246000fd5b7f4e487b7100000000000000000000000000000000000000000000000000000000600052602260045260246000fd5b6000601f19601f8301169050919050565b7f43616c6c6572206e6f74206f776e657200000000000000000000000000000000600082015250565b7f696e76616c696420616d6f756e74000000000000000000000000000000000000600082015250565b7f426f74682074696d657374616d702063616e6e6f742062652030000000000000600082015250565b7f416464726573733a20696e73756666696369656e742062616c616e636520666f60008201527f722063616c6c0000000000000000000000000000000000000000000000000000602082015250565b7f546f6b656e20616d6f756e742065786365656400000000000000000000000000600082015250565b7f416d6f756e74206578636565647320746f74616c20616d6f756e7420746f207260008201527f6169736500000000000000000000000000000000000000000000000000000000602082015250565b7f4669786564506f696e743a3a6672616374696f6e3a206469766973696f6e206260008201527f79207a65726f0000000000000000000000000000000000000000000000000000602082015250565b7f53616c6520436f6e747261637420697320496e61637469766500000000000000600082015250565b7f70726f6a656374206e6f74206c69766500000000000000000000000000000000600082015250565b7f46756c6c4d6174683a3a6d756c4469763a206f766572666c6f77000000000000600082015250565b7f4669786564506f696e743a3a6672616374696f6e3a206f766572666c6f770000600082015250565b7f70726f6a6563742068617320656e646564000000000000000000000000000000600082015250565b7f416464726573733a2063616c6c20746f206e6f6e2d636f6e7472616374000000600082015250565b7f43616c6c657220496e76616c6964000000000000000000000000000000000000600082015250565b7f5361666545524332303a204552433230206f7065726174696f6e20646964206e60008201527f6f74207375636365656400000000000000000000000000000000000000000000602082015250565b6130a481612c41565b81146130af57600080fd5b50565b6130bb81612c53565b81146130c657600080fd5b50565b6130d281612c7f565b81146130dd57600080fd5b50565b6130e981612c89565b81146130f457600080fd5b5056fea264697066735822122019871b6f7caa35cc33404fab5529a59b92633e11aa218567bfe34bc22c06bb7d64736f6c63430008040033",
  "linkReferences": {},
  "deployedLinkReferences": {}
}